:020000040800F2
:10000000080B002029050008290100082B01000821
:100010002F0100083301000837010008000000002C
:100020000000000000000000000000003B0100088C
:100030003D010008000000003F01000841010008E8
:100040004305000843050008430500084305000870
:100050004305000843050008430500084305000860
:100060004305000843050008430500084305000850
:100070004305000843050008430500084305000840
:100080004305000843050008430500084305000830
:100090004305000843050008430500083D02000829
:1000A0004305000843050008430500084305000810
:1000B0004305000843050008430500084305000800
:1000C00043050008430500084305000843050008F0
:1000D00043050008430100086901000843050008C2
:1000E0006B0200084305000843050008DFF810D044
:1000F00001F084FE0048004705010008AFF30080CE
:10010000080B002001F0A2FD01F02CFA0BE0012009
:1001100001F056FA032001F053FA042001F050FADE
:10012000052001F04DFAF2E7704700BFFEE700BF7F
:10013000FEE700BFFEE700BFFEE77047704770476D
:10014000704710B52021614801F0B2F958B15F48FD
:1001500001F044F9C4B221465C4801F03BF920218A
:100160005A4801F0B2F910BD10B51021584801F0FD
:100170009FF9002861D0564801F030F9554800F049
:1001800099FB4042544908700846007800284DDD2C
:1001900052A1544801F020FE10B1012001F010FAE4
:1001A00051A1504801F018FE10B1012001F02BFAC6
:1001B00050A14C4801F010FE10B1032001F000FAEC
:1001C0004EA1484801F008FE10B1032001F01BFACF
:1001D0004DA1444801F000FE10B1042001F0F0F9F7
:1001E0004BA1404801F0F8FD10B1042001F00BFADA
:1001F0004AA13C4801F0F0FD10B1052001F0E0F902
:1002000048A1384801F0E8FD10B1052001F0FBF9E4
:1002100047A1344801F0E0FD08B101F02FFA46A1F2
:10022000304801F0D9FD08B101F02FFA102128481B
:1002300001F04BF9274801F08FFC10BD10B54FF4C9
:10024000807000F0F1FB012805D101F0B9F94FF4FD
:10025000807000F0FAFB4FF4007000F0E5FB01281D
:1002600002D1400200F0F1FB10BD10B54FF4804008
:1002700000F0DAFB012805D101F007FA4FF48040C5
:1002800000F0E3FB4FF4004000F0CEFB01281BD14F
:100290002C48007850B101F029FA2A48007808B9B2
:1002A000012000E000202749087009E001F01EFA53
:1002B0002448007808B9012000E000202149087096
:1002C0004FF4004000F0C1FB10BD000000380140B9
:1002D000004400406C0002402C0000204C4544319A
:1002E0005F4F4E00040600204C4544315F4F4646A8
:1002F000000000004C4544335F4F4E004C454433F2
:100300005F4F4646000000004C4544345F4F4E00AE
:100310004C4544345F4F4646000000004C45443590
:100320005F4F4E004C4544355F4F4646000000008D
:10033000424545505F4F4E00424545505F4F46464F
:1003400000000000000000200CB50020019000908B
:100350006C48006840F480306A49086000BF694812
:10036000006800F4003000900198401C0190009853
:1003700018B90198B0F5A06FF1D16248006800F497
:10038000003010B10120009001E0002000900098A2
:10039000012843D15C48006840F010005A490860C9
:1003A0000846006820F0030008600846006840F036
:1003B0000200086053484068524948600846406857
:1003C00048600846406840F48060486008464068DD
:1003D00020F47C1048600846406840F4E81048600B
:1003E0000846006840F08070086000BF454800681B
:1003F00000F000700028F9D04248406820F0030067
:10040000404948600846406840F00200486000BF2C
:100410003C48406800F00C000828F9D10CBD10B52C
:10042000FFF792FF10BD10B53648006840F001009C
:1004300034490860084640683449084031494860FA
:1004400008460068324908402E490860084600689E
:1004500020F4802008600846406820F4FE004860D0
:100460004FF41F008860FFF7DAFF4FF00060294962
:10047000086010BD10B5002100200022214B5B68F0
:1004800003F00C0121B1042906D0082928D107E086
:10049000214B224C236027E01F4B204C236023E09C
:1004A000184B5B6803F47010164B5B6803F48032E2
:1004B000022303EB904022B9194B4343174C2360AE
:1004C0000DE0104B5B6803F4003323B1144B43433E
:1004D000124C236003E0104B4343104C236003E0B5
:1004E0000D4B0E4C236000BF00BF064B5B68C3F38F
:1004F00003130C4CE15C094B1B68CB40074C236099
:1005000010BD000000100240002002400000FFF873
:10051000FFFFF6FE08ED00E000127A000400002064
:1005200000093D00080000200648804706480047B3
:10053000FEE7FEE7FEE7FEE7FEE7FEE7FEE7FEE793
:10054000FEE7FEE727040008ED00000831490143FB
:10055000314A1160704770B5002100230F22C47822
:1005600004B32D4C246804F4E064C4F5E064210A6B
:10057000C1F10403CA40447804FA03F184781440BA
:1005800021430901254C0678A155047804F01F0584
:100590000124AC4005786D11AD0005F1E025C5F8EA
:1005A000004109E0047804F01F050124AC401C4D13
:1005B0000678761145F8264070BD1A4A0A40024373
:1005C000154B1B1F1A60704739B1134A121D126870
:1005D0000243114B1B1D1A6006E00F4A121D1268E0
:1005E00082430D4B1B1D1A607047042808D14FF041
:1005F000E021096941F004014FF0E022116107E0B8
:100600004FF0E021096921F004014FF0E02211616F
:10061000704700000000FA050CED00E000E400E087
:1006200080E100E080FFFF1F10B5012000F066FDB3
:10063000002000F063FD10BD2A4908607047294979
:10064000091F0860704727498431086070470146D8
:100650000020254A10884FF67F4210400843224A66
:1006600010807047014600201F4A10884FF68072A4
:10067000104008431C4A1080704708B500220092C1
:10068000194A2C3A0092009A02440092009A116092
:1006900008BD08B501460020009013482C38009092
:1006A0000098084400900098008808BD0D489C30D0
:1006B0000068C0B270470C480830008840F0010064
:1006C00009490831088070470648A0300068C0B268
:1006D000704705480830008840F0020002490831A0
:1006E0000880704704860D422C6C004001684FF66C
:1006F000FE72114001600021016041608160C160B3
:100700008D49884208D18C490839496841F00F0168
:10071000894A083A51608AE087491431884208D1F1
:1007200085490839496841F0F001834A083A516027
:100730007DE081492831884208D17F4908394968DC
:1007400041F470617C4A083A516070E07A493C316A
:10075000884208D178490839496841F47041764A9D
:10076000083A516063E074495031884208D17249B7
:100770000839496841F470216F4A083A516056E0DF
:100780006D496431884208D16B490839496841F4A0
:100790007001694A083A516049E0674978318842F6
:1007A00008D165490839496841F07061624A083AE0
:1007B00051603CE06149884206D1011F096841F05F
:1007C0000F01021F116032E05C491431884208D1E8
:1007D0005A49091F096841F0F001584A121F116077
:1007E00025E056492831884208D15449091F096833
:1007F00041F47061514A121F116018E04F493C31B9
:10080000884208D14D49091F096841F470414B4A9B
:10081000121F11600BE049495031884207D1474906
:10082000091F096841F47021444A121F1160704782
:1008300010B50022026847F6F0739A430C6A8B6881
:1008400023430C6923434C6923438C692343CC69BC
:1008500023434C6A23438C6A23431A430260CB68C8
:1008600043600B6883604B68C36010BD002101606A
:1008700041608160C160016141618161C16101626A
:1008800041628162704721B1026842F00102026058
:1008900004E002684FF6FE731A40026070471AB116
:1008A00003680B43036002E003688B4303607047F7
:1008B000416070470146486880B270470146002099
:1008C000002201F080531BB11C4B083B1A6802E068
:1008D000194B083B1A6802EA01030BB1012000E042
:1008E0000020704700F0805119B11449091F0860B9
:1008F00002E0114908394860704701460020002293
:1009000001F080531BB10D4B083B1A6802E00A4B03
:10091000083B1A6802EA01030BB1012000E0002045
:10092000704700F0805119B10449091F086002E0C6
:100930000149083948607047080002400804024035
:10094000002044490860091D0860091D0860091D50
:10095000086041483F4914310860704700213D4913
:100960008279002A3AD00A46126803689A430B46F5
:100970001A600A1D126803689A430B1D1A600279F7
:1009800011440A6803681A430A60324A083212683E
:1009900003689A432F4B08331A601A1D12680368C4
:1009A0009A432C4B0C331A604279102A0ED11A1F2D
:1009B000126803681A43274B08331A601A1D12681D
:1009C00003681A43234B0C331A600DE02149427926
:1009D00011440A6803681A430A6005E00279114469
:1009E0000A6803689A430A60704700210160017138
:1009F0000C2141710021817170471649103109683D
:100A00000143144A10321160704701460020114A18
:100A1000143212680A400AB1012000E00020704739
:100A20000C49143108607047014600200022094B30
:100A30001B6803EA0102074B14331B680B4013B118
:100A40000AB1012000E0002070470249143108601B
:100A50007047000000040140FFFF0F0010B504467E
:100A6000CC48844208D10121042000F02DFB002154
:100A7000042000F029FB46E0C748844208D1012148
:100A8000082000F021FB0021082000F01DFB3AE0C7
:100A9000C248844208D10121102000F015FB00213A
:100AA000102000F011FB2EE0BD48844208D1012146
:100AB000202000F009FB0021202000F005FB22E0AF
:100AC000B848844208D10121402000F0FDFA0021FD
:100AD000402000F0F9FA16E0B348844208D1012121
:100AE000802000F0F1FA0021802000F0EDFA0AE009
:100AF000AE48844207D10121801500F0E5FA0021BB
:100B0000A01500F0E1FA10BD10B50121084600F073
:100B1000DBFA0021012000F0D7FA10BD2DE9F041E9
:100B2000024600250026002000230024002791F81B
:100B300003C00CF00F0591F803C00CF0100CBCF1D1
:100B4000000F03D091F802C04CEA050591F800C0EF
:100B5000BCF1000F31D0146800202BE04FF0010CE5
:100B60000CFA00F3B1F800C00CEA03069E4220D153
:100B700083004FF00F0C0CFA03F7BC4305FA03FC9B
:100B80004CEA040491F803C0BCF1280F06D14FF0E1
:100B9000010C0CFA00FCC2F814C00AE091F803C082
:100BA000BCF1480F05D14FF0010C0CFA00FCC2F863
:100BB00010C0401C0828D1D31460B1F800C0BCF1AB
:100BC000FF0F34DD546800202EE000F1080C4FF0D8
:100BD000010808FA0CF3B1F800C00CEA03069E42C3
:100BE00021D183004FF00F0C0CFA03F7BC4305FA38
:100BF00003FC4CEA040491F803C0BCF1280F05D1B2
:100C000000F1080C08FA0CF8C2F8148091F803C03F
:100C1000BCF1480F07D100F1080C4FF0010808FAA9
:100C20000CF8C2F81080401C0828CED35460BDE8F0
:100C3000F0814FF6FF710180022181700421C170A3
:100C400070470246002093680B400BB1012000E082
:100C5000002070470146886880B270470246002035
:100C6000D3680B400BB1012000E000207047014623
:100C7000C86880B2704701617047416170470AB12E
:100C8000016100E041617047C16070474FF48032FC
:100C90000A4382618161826182698269704702468A
:100CA0000020434B18684FF68073184040EA02104A
:100CB00008433F4B186070473E49C8617047F0B524
:100CC0000A46002300240021002500F00046B6F16A
:100CD000004F02D1364EF16901E0354E7168C0F324
:100CE000034583B200F44016B6F5401F08D121F049
:100CF00070612F4E766826F070662D4F7E6012E090
:100D000000F48016B6F5801F06D1032606FA05F416
:100D1000A14341F0706106E0460D360103FA06F684
:100D2000B14341F0706122B1460D360103FA06F677
:100D3000314300F00046B6F1004F02D11C4EF16184
:100D400001E01B4E7160F0BD30B500228B071C0F17
:100D50000F2303FA04F2164B08338C1053F8243097
:100D60009343134C08348D1044F8253023468C10DF
:100D700053F824308C07240F00FA04F423430C4C5E
:100D800008348D1044F8253030BD0A49DC31086044
:100D90007047000000080140000C014000100140B5
:100DA0000014014000180140001C014000200140D7
:100DB0000000014000002042DF48006840F00100D0
:100DC000DD49086008464068DC490840DA49486067
:100DD00008460068DA490840D749086008460068B4
:100DE00020F4802008600846406820F4FE00486037
:100DF0004FF41F0088607047CF49096821F48031A3
:100E0000CD4A11601146096821F480211160B0F5C6
:100E1000803F03D0B0F5802F0ED106E0C6490968A7
:100E200041F48031C44A116007E0C349096841F4C4
:100E3000A021C14A116000E000BF00BF704710B59B
:100E400001460022002300204A11012A02D1BA4C97
:100E5000236806E0022A02D1B74C236A01E0B64CAF
:100E6000636A01F01F02012494401C400CB1012070
:100E700000E0002010BD38B50020009000240025BF
:100E800000BF3120FFF7DBFF05460098401C0090B3
:100E90000098B0F5A06F01D0002DF2D03120FFF7FF
:100EA000CEFF08B1012400E00024204638BD0146F1
:100EB0000020A14A106820F0F80040EAC10010604C
:100EC0007047A04908607047024600209A4B586856
:100ED00020F47C1042EA01031843974B5860704796
:100EE00098490866704701460020934A506820F0F0
:100EF00003000843506070478F48406800F00C00C2
:100F00007047014600208C4A506820F0F0000843EA
:100F10005060704701460020874A506820F4E06026
:100F200008435060704701460020834A506820F40F
:100F3000605040EAC1005060704729B17E4A527A41
:100F400002437D4B5A7204E07B4A527A82437A4BC9
:100F50005A7270477B49D8310860704701460020BB
:100F6000754A506820F440400843506070470021A3
:100F7000714A20321170704A82F82010012802D084
:100F800004280AD104E001216B4A2032117005E0E7
:100F90000521694A2032117000E000BF00BF704790
:100FA0006949086070476449096A0143624A1162ED
:100FB0007047654944390860704730B50021002208
:100FC000002400235C4D6D6805F00C0121B104295B
:100FD00005D0082923D105E05C4D056022E05B4D7A
:100FE00005601FE0544D6D6805F47012524D6D6838
:100FF00005F48034022505EB92421CB9544D55434B
:1010000005600BE04C4D6D6805F400351DB1504D89
:101010005543056002E04D4D5543056002E04B4DE0
:10102000056000BF00BF444D6D6805F0F00109097F
:10103000484D6B5C0568DD4045603F4D6D6805F4CB
:10104000E061090A434D6B5C4568DD4085603A4DBF
:101050006D6805F46051C90A3E4D6B5C4568DD4022
:10106000C560354D6D6805F44041890B3A4D6B5CA8
:10107000C568B5FBF3F5056130BD29B12E4A52694B
:1010800002432D4B5A6104E02B4A526982432A4B9A
:101090005A61704729B1284A92690243264B9A61E6
:1010A00004E0254A92698243234B9A61704729B133
:1010B000214AD2690243204BDA6104E01E4AD26918
:1010C00082431D4BDA61704729B11B4AD268024343
:1010D000194BDA6004E0184AD2688243164BDA6092
:1010E000704729B1144A12690243134B1A6104E094
:1010F000114A12698243104B1A61704712494039F4
:10110000086070470F49C86470470B49C871704741
:101110000948406A40F080700749486270470146BC
:101120000020054A92680A400AB1012000E0002030
:101130007047014988727047001002400000FFF8B4
:10114000FFFFF6FE000042428004424200127A0095
:1011500000093D00180000202800002010B50446BA
:10116000FB48844209D101218803FFF7ADFF00212C
:101170004FF48040FFF7A8FF32E0F648844209D1DF
:1011800001214804FFF7ADFF00214FF40030FFF7C5
:10119000A8FF25E0F048844209D101218804FFF727
:1011A000A0FF00214FF48020FFF79BFF18E0EB48E1
:1011B000844209D10121C804FFF793FF00214FF4B5
:1011C0000020FFF78EFF0BE0E548844208D10121A3
:1011D0000805FFF786FF00214FF48010FFF781FF1D
:1011E00010BD2DE9F04786B005460E460024A24604
:1011F00000BFA1460027B08900B100BF2F462C8A4E
:101200004CF6FF700440F08804432C82AC894EF603
:10121000F3100440B08831890843718908430443BE
:10122000AC81AC8A4FF6FF400440B0890443AC82E5
:1012300001A8FFF7C2FEC648874202D1DDF810A020
:1012400001E0DDF80CA0A88900F4004040B10AEBF1
:10125000CA0000EB0A1031684900B0FBF1F807E062
:101260000AEBCA0000EB0A1031688900B0FBF1F804
:101270006420B8FBF0F004012009642101FB10890F
:10128000A88900F4004040B1322000EBC900B0FB57
:10129000F1F000F00700044308E0322000EB0910F1
:1012A0006421B0FBF1F000F00F0004432C8106B084
:1012B000BDE8F0874FF41651016000218180C180A4
:1012C00001810C21418100218181704710B50246C6
:1012D0000020108A4FF2FF0318400B884C882343EC
:1012E0008C882343CC8823431843108210BD0021EF
:1012F000018041808180C180704721B1828942F4A0
:101300000052828104E082894DF6FF731A40828187
:101310007047F0B50346002400260025002040F663
:101320006A17B94200D100BF1846C1F3421401F058
:101330001F06012707FA06F5012C01D10C3004E045
:10134000022C01D1103000E014301AB107682F438D
:10135000076002E00768AF430760F0BD1AB1838AF7
:101360000B43838202E0838A8B4383827047028A25
:101370004FF6F0731A400282028A0A4302827047D3
:1013800082894FF2FF731A40828182890A438281E7
:10139000704721B1828942F00202828104E0828991
:1013A0004FF6FD731A4082817047028A4FF6DF7351
:1013B0001A400282028A0A430282704721B1028ADD
:1013C00042F48042028204E0028A4BF6FF731A4024
:1013D00002827047C1F30802828070470146888804
:1013E000C0F308007047818941F001018181704795
:1013F000028BD2B20283028B42EA0122028370473F
:10140000028B02F47F420283028B0A4302837047FD
:1014100021B1828A42F02002828204E0828A4FF661
:10142000DF731A408282704721B1828A42F0100233
:10143000828204E0828A4FF6EF731A4082827047FC
:1014400021B1828A42F00802828204E0828A4FF649
:10145000F7731A408282704721B1828942F40042B8
:10146000828103E08289C2F30E028281704721B13A
:10147000828A42F40062828204E0828A4FF2FF7321
:101480001A4082827047828A4FF6FB731A4082822A
:10149000828A0A438282704721B1828A42F0020224
:1014A000828204E0828A4FF6FD731A40828270477E
:1014B00002460020B1F5007F00D100BF13880B4029
:1014C0000BB1012000E00020704701F40072B2F57A
:1014D000007F00D100BFCA430280704770B502464A
:1014E000002400230025002040F66A16B14200D1F6
:1014F00000BFC1F3421501F01F03012606FA03F3F2
:10150000012D02D19689334006E0022D02D1168AC0
:10151000334001E0968A33400C12012606FA04F4A7
:101520001688344013B10CB1012000E0002070BDDA
:1015300010B50022002340F66A14A14200D100BF7A
:101540000A1201249440A3B2DC43048010BD0000C1
:10155000003801400044004000480040004C00407A
:101560000050004008B501210420FFF793FD012140
:101570001120FFF78FFD0020FFF761F80020FFF733
:1015800062F87020ADF8000010208DF803000320F1
:101590008DF8020069462D48FFF7C0FA4FF400505D
:1015A000ADF8000069462A48FFF7B8FA70212748CD
:1015B000FFF763FB4FF400512548FFF75EFB08BDC2
:1015C00010B50446012C06D0032C0AD0042C0DD0F3
:1015D000052C15D10FE04FF400511D48FFF74DFBCE
:1015E0000FE010211948FFF748FB0AE020211748B7
:1015F000FFF743FB05E040211448FFF73EFB00E006
:1016000000BF00BF10BD10B50446012C06D0032C4E
:101610000AD0042C0DD0052C15D10FE04FF4005149
:101620000B48FFF728FB0FE010210848FFF723FBCA
:101630000AE020210548FFF71EFB05E04021034892
:10164000FFF719FB00E000BF00BF10BD000801401C
:101650000010014008B501210820FFF71BFD4FF4E1
:101660008050ADF8000010208DF8030003208DF8A5
:10167000020069460848FFF751FA08BD10B54FF45B
:1016800080510548FFF7F9FA10BD10B54FF48051AD
:101690000148FFF7F0FA10BD000C014070B5044698
:1016A0000D461DB1E0B200F0A1F902E0E0B200F099
:1016B00087F970BD70B505460C462646E11704EB68
:1016C0005171C91001F1B0000021FFF7E7FFA91C1B
:1016D000C1F3031141F010000021FFF7DFFFA91C47
:1016E00001F00F000021FFF7D9FF70BD10B50021F8
:1016F0008D20FFF7D3FF00211420FFF7CFFF00213B
:10170000AF20FFF7CBFF10BD10B500218D20FFF7F4
:10171000C5FF00211020FFF7C1FF0021AE20FFF719
:10172000BDFF10BDF0B503461446E4B1CD1701EB83
:101730005575ED1003EBC515764E755D0A46CE174F
:1017400001EB5676F610A1EBC6070126BE40F6B2B5
:1017500035430846CE1701EB5676F61003EBC61656
:101760006C4FBD551AE0CD1701EB5575ED1003EB2D
:10177000C515684E755D0A46CE1701EB5676F61014
:10178000A1EBC6070126BE40B5430846CE1701EBC4
:101790005676F61003EBC6165E4FBD55F0BD70B51C
:1017A00000241BE004F1B0000021FFF777FF0021C7
:1017B0000220FFF773FF00211020FFF76FFF0025C5
:1017C00008E005EBC411534A505C0121FFF766FFA6
:1017D000681CC5B2802DF4DB601CC4B2082CE1DBB0
:1017E00070BD10B5044634B1FF224FF48061494802
:1017F00000F0E0FA04E04FF48061464800F0E1FABE
:10180000FFF7CDFF10BD08B501210820FFF742FC0E
:101810001820ADF8000010208DF8030003208DF88B
:10182000020069463C48FFF779F918213A48FFF76A
:1018300022FA08BD10B5FFF7E6FFC82000F0E5F971
:101840000021AE20FFF72AFF00210220FFF726FF2C
:1018500000211020FFF722FF00214020FFF71EFF8C
:101860000021B020FFF71AFF00218120FFF716FFAB
:101870000021FF20FFF712FF0021A120FFF70EFF3C
:101880000021A620FFF70AFF0021A820FFF706FF8E
:1018900000213F20FFF702FF0021AD20FFF7FEFEF1
:1018A00000218B20FFF7FAFE00213220FFF7F6FE21
:1018B0000021C820FFF7F2FE0021D320FFF7EEFE43
:1018C00000210846FFF7EAFE0021D520FFF7E6FEDB
:1018D00000218020FFF7E2FE0021D920FFF7DEFE85
:1018E00000211F20FFF7DAFE0021DA20FFF7D6FEE5
:1018F00000211220FFF7D2FE0021DB20FFF7CEFEF1
:1019000000214020FFF7CAFE0021AF20FFF7C6FEEE
:1019100010BD000004020020000C014010B5102191
:101920003D48FFF7A8F908213B48FFF7A4F9082133
:101930003948FFF7A2F910213748FFF79EF910BD8B
:1019400010B510213448FFF796F908213248FFF707
:1019500094F908213048FFF78EF910BD10B5102119
:101960002D48FFF788F910212B48FFF786F910BDA5
:101970002DE9F04105462C4610212748FFF77DF957
:10198000002619E0274607F08007802F04D10821A0
:101990002148FFF770F903E008211F48FFF76DF9B0
:1019A0006006040E10211C48FFF765F910211A4843
:1019B000FFF763F9701CC6B2082EE3DBBDE8F081C7
:1019C00010B50446FFF7AAFF7820FFF7D1FFFFF715
:1019D000C5FF0020FFF7CCFFFFF7C0FF2046FFF751
:1019E000C7FFFFF7BBFFFFF7ABFF10BD10B5044605
:1019F000FFF794FF7820FFF7BBFFFFF7AFFF402012
:101A0000FFF7B6FFFFF7AAFF2046FFF7B1FFFFF78A
:101A1000A5FFFFF795FF10BD000C014000B591B088
:101A200001210420FFF743FB18208DF84300042018
:101A3000ADF8400003208DF8420010A94E48FFF792
:101A40006DF804208DF843000820ADF8400010A97F
:101A50004948FFF763F801214804FFF728FB4FF4DA
:101A6000E1300C900020ADF83C000C20ADF83A00BD
:101A70000020ADF83800ADF83600ADF834000CA900
:101A80003E48FFF7AEFB012240F224413B48FFF7FE
:101A900040FC012240213948FFF760FC0121374812
:101AA000FFF72BFC01210220FFF7E7FA4FF48070CB
:101AB0000490002003900B90314802900020089081
:101AC00080200690002009902C48001D01900020E5
:101AD000079005904FF400500A9001A92948FEF79D
:101AE000A7FE01212748FEF7CEFE4FF4C060FEF7A7
:101AF0002DFD26208DF8000001208DF803008DF8C3
:101B0000010002208DF802006846FEF724FD11B0A6
:101B100000BD70B505460C4621461848FFF75AFC33
:101B200000BF80211548FFF7C3FC0028F9D070BD25
:101B300070B505460C4604E021782846FFF7E9FF1A
:101B4000641C20780028F7D100BF40210B48FFF724
:101B5000AFFC0028F9D070BD10B504460021204626
:101B6000FEF791FE4FF480712046FEF7A1FE0121A1
:101B70002046FEF788FE10BD0008014000440040EA
:101B8000040600206C00024030B50146B1F1807FB0
:101B900001D3012030BD21F07F40401E4FF0E022F4
:101BA000506150170F22002807DA13071D0E244B2F
:101BB00000F00F04241F1D5503E013071C0E214BDA
:101BC0001C5400BF00204FF0E022906107201061FC
:101BD0000020DFE770B504464820FFF7D5FF002559
:101BE00008E000BF4FF0E020006900F0010000288D
:101BF000F8D06D1CA542F4D34FF0E020006920F02E
:101C000001004FF0E021086170BD70B504460E4838
:101C1000FFF7BAFF002508E000BF4FF0E0200069A1
:101C200000F001000028F8D06D1CA542F4D34FF05D
:101C3000E020006920F001004FF0E021086170BD54
:101C400018ED00E000E400E04019010000B587B0A5
:101C500001210420FFF71EFA01218803FFF71AFA79
:101C60004FF48060ADF8180004208DF81B000320AD
:101C70008DF81A0006A94D48FEF750FF4FF400708A
:101C8000ADF8180018208DF81B0006A94748FEF78C
:101C900045FF4FF4E13002900020ADF814000C2015
:101CA000ADF812000020ADF81000ADF80E00ADF850
:101CB0000C0002A93E48FFF794FA4FF4A060FEF72B
:101CC00045FC25208DF8040001208DF807008DF8D3
:101CD00005008DF8060001A8FEF73DFC012240F248
:101CE00025513348FFF715FB01213148FFF705FB6C
:101CF00007B000BD70B504460D4629462046FFF7E3
:101D000069FB00BF80212046FFF7D2FB0028F9D0F5
:101D100070BD2DE9F04107460C461546002606E049
:101D200014F8011B3846FFF7E5FF701CC6B2AE423F
:101D3000F6DB00BF40213846FFF7BAFB0028F9D098
:101D4000BDE8F08170B506460C46002505E0615DF2
:101D50003046FFF7CFFF681CC5B2605D0028F6D1A2
:101D600000BF40213046FFF7A3FB0028F9D070BD2B
:101D700070B504460D46E1B20D48FFF72BFB00BFDE
:101D800080210B48FFF794FB0028F9D0204670BD56
:101D900010B5044600BF20210548FFF789FB002845
:101DA000F9D00348FFF71AFB10BD000000080140FE
:101DB00000380140D2B201E000F8012B491EFBD2ED
:101DC00070470022F6E710B513460A460446194646
:101DD000FFF7F0FF204610BD30B505462A460B46FA
:101DE00012F8010B13F8014B08B1A042F8D01CB156
:101DF000002802D06D1CF1E7284630BD064C074D87
:101E000006E0E06840F0010394E8070098471034CA
:101E1000AC42F6D3FEF76EF99C1E0008BC1E00080B
:101E200070B58D1810F8014B14F0030201D110F8B1
:101E3000012B231106D110F8013B03E010F8016BD0
:101E400001F8016B521EF9D1ABB110F8012B04F06F
:101E50000C048A1A0C2C03D0A2EB84129B1C08E001
:101E600010F8014BA2EB0422F8E712F8014B01F83D
:101E7000014B5B1EF9D5A942D4D3002070BD02E00E
:101E800008C8121F08C1002AFAD170477047002005
:101E900001E001C1121F002AFBD17047BC1E0008DF
:101EA0000000002004020000201E00083820000866
:101EB00004020020040900008E1E000822000150C8
:101EC00005A24A040001600901020304060708098B
:101ED0000C6110302B020406080041542B4349507A
:101EE000534E54504346473D312C382C226E74706B
:101EF000312E616C6979756E2E636F6D220D0A2625
:101F0000501F574A41503D222847292D49444C45EE
:101F1000222C2232313631383236383135777777E4
:101F20002620094D515454555345524D100A302C1A
:101F3000312C224E554C4C2C10044553502B100E76
:101F4000362669357A34324A7066446C5616102C3F
:101F500046313533423433413635434339363838E8
:101F600039463043454246393639383445453139AA
:101F70003933363832343533222C30029222641011
:101F800009434C49454E544944659188A03D7C73B2
:101F900065637572656D6F64653D325C2C7369674E
:101FA0006E6D6574686F643D686D616373686131FF
:101FB0005C2C74696D657374616D703D31363736B4
:101FC0003034353436393237307C5D20044F4E4E54
:101FD0005991AD10112E696F742D61732D6D71744F
:101FE000742E636E2D4C54066E67686169283763E2
:101FF000732A84082C313838332C310B2004505587
:1020000042A2922F4A562F0B100F2F757365722F15
:1020100074656D7065726174B61510100478787807
:102020004403292C3041C00848525F53504F323D81
:082030000300000000000000A5
:04000005080000ED02
:00000001FF
